:100000000C9455000C9474000C9474000C947400BF
:100010000C9474000C9474000C9474000C94740090
:100020000C9474000C9474000C9474000C94740080
:100030000C9474000C9474000C9474050C9474006B
:100040000C9474000C9474000C94D0040C94740000
:100050000C9474000C9474000C9474000C94740050
:100060000C9474000C9474000C9474000C94740040
:100070000C9474000C9474000C9485000C9474001F
:100080000C9474000C9474000C94740005A84CCD6E
:10009000B2D44EB93836A9020C50B9918688083CC2
:1000A000A6AAAA2ABE000000803F11241FBECFEFDF
:1000B000D0E1DEBFCDBF12E0A0E0B1E0E6EAF7E3B9
:1000C00000E00BBF02C007900D92AA33B107D9F729
:1000D00012E0AAE3B2E001C01D92A63FB107E1F72A
:1000E0000E94850F0C94D11B0C94000010929B0071
:1000F00088E980939A0086E080939D001092980092
:1001000087E080939900789408951F920F920FB61C
:100110000F920BB60F9211248F939F93EF93FF933F
:1001200090919C0080919B00887BE1F381E080931B
:100130003A0290933B0280913C02882391F0809197
:100140003B02863511F410923E0280913E02E82F68
:10015000F0E090913B02E15AFD4F90838F5F8093D6
:100160003E02FF91EF919F918F910F900BBE0F90E8
:100170000FBE0F901F90189580913B0210923B028A
:10018000F89410923A0278940895982F80919B00E9
:1001900085FFFCCF90939C0008958FEF80937300B0
:1001A00088E4809370000895982F84EA8093740007
:1001B0008091740087FFFCCF8EE08093730084E809
:1001C000809374008091740087FFFCCF909373003C
:1001D00084E8809374008091740087FFFCCF84E9E9
:1001E000809374000895DF92EF92FF920F931F9314
:1001F000CF93DF93E82EF62E8A0183E08E1558F117
:10020000E3E1E61740F18BE10E94D4008CE40E9408
:10021000D4008F2D0E94D4008E2D0E94D40080E740
:1002200091E00197F1F7C0E0D0E0EF2CFF2484ECDF
:10023000D82E07C00F5F1F4F0E94D4008D2D8A95C6
:10024000F1F7CE018E0D9F1D44972CF4F8018081AB
:100250002196882379F7DF91CF911F910F91FF901D
:10026000EF90DF900895FF920F931F93082F162FA2
:10027000F22E8430C0F46431B0F48BE10E94D400DB
:100280008CE40E94D400812F0E94D400802F0E9411
:10029000D40080E791E00197F1F78F2D0E94D40000
:1002A00084EC8A95F1F71F910F91FF9008958BE1EF
:1002B0000E94D40083E40E94D40088EC90E020E700
:1002C00031E0F9013197F1F70197D9F70895DF92FD
:1002D000EF92FF920F931F93E82EF62ED42E842FC9
:1002E00064E60E94CF19082F10E0005D1F4F9801AF
:1002F000442737FD4095542F005310408E2D6F2D0D
:100300000E9433018CE99FEF9C01029FC001039F73
:10031000900D129F900D1124D80E8D2D6AE00E9431
:10032000CF19082F10E0F394005D1F4F9801442768
:1003300037FD4095542F005310408E2D6F2D0E9495
:100340003301F39486EF9FEF9C01029FC001039F4E
:10035000900D129F900D1124D80E8D2D90E0C09617
:100360009C01442737FD4095542F8E2D6F2D0E9400
:1003700033011F910F91FF90EF90DF900895E82FC8
:10038000F0E0B096BE2FAA27B0978C918093E80238
:1003900080FDFBCFB896FE2FEE27E0818C918093F5
:1003A000E80280FDFBCF8E2F089590E08096F82F15
:1003B000EE2780818093E80280FDFBCF60838081FF
:1003C0008093E80280FDFBCF0895282F30E0205E67
:1003D0003F4FF22FEE272052304080818093E80279
:1003E00080FDFBCF285D3F4FB22FAA277C938081F1
:1003F0008093E80280FDFBCF6C9380818093E802BC
:1004000080FDFBCF0895DF92EF92FF920F931F9331
:10041000D82E7A018B019801552737FD5095452F2D
:10042000B9010E94E5018D2DB7010E94E5011F91E0
:100430000F91FF90EF90DF9008951F93182F60E0C9
:100440000E94D5018CEC9CE10197F1F7812F6DE1C1
:100450000E94D501812F60E070E00E94E5011F91AC
:100460000895AF92BF92CF92DF92EF92FF920F93D7
:100470001F93CF93DF93182FEB016A01590100E01E
:100480006115710509F001E0FF24C114D10411F0D8
:10049000FF24F394EE24A114B10411F0EE24E394AC
:1004A000812F6EE10E94D5016F2D70E0660F771FDE
:1004B000660F771F802F90E0F3E0880F991FFA9561
:1004C000E1F7682B792B8E2D90E0880F991F682B10
:1004D000792B812F0E94E501002321F0812FBE019D
:1004E0000E94E501FF2021F0812FB6010E94E50165
:1004F000EE2021F0812FB5010E94E501812F64E0FB
:100500000E94D501DF91CF911F910F91FF90EF9045
:10051000DF90CF90BF90AF900895CF92DF92EF928F
:10052000FF921F93182F6A017B016FE10E94D50192
:10053000812F60E270E00E94E501812FB701A601E2
:100540000E9403021F91FF90EF90DF90CF900895DB
:1005500080E06AE070E045E050E023E030E00E9497
:10056000310281E06AE070E043E050E023E030E0F7
:100570000E94310282E06AE070E045E050E023E052
:1005800030E00E94310280E04FEF5FEF60E070E00A
:100590000E948D0281E04FEF5FEF60E070E00E940B
:1005A0008D0282E04FEF5FEF60E070E00E948D020D
:1005B0000895CF92DF92EF92FF920F931F93D82E60
:1005C0007A018B0177FD03C0CC24C39409C0109538
:1005D0000095F094E094E11CF11C011D111DCC2448
:1005E0008D2D6FE10E94D5017C2D7295707F60E0AA
:1005F000686078608D2D0E94E5018D2DB801A701FE
:100600000E9403021F910F91FF90EF90DF90CF9017
:1006100008954F925F926F927F928F929F92AF92C6
:10062000BF92CF92DF92EF92FF920F931F93882E8B
:10063000962E29013A016FE10E94D5018AE2982A9B
:10064000882D692D70E00E94E501882DB301A2017B
:100650000E940302882DB801A7010E940302882D81
:10066000B601A5010E9403021F910F91FF90EF9028
:10067000DF90CF90BF90AF909F908F907F906F90C2
:100680005F904F9008953F924F925F926F927F924A
:100690008F929F92AF92BF92CF92DF92EF92FF9292
:1006A0000F931F93DF93CF9300D00F92CDB7DEB798
:1006B00093E05E010894A11CB11CF501892F1192F1
:1006C0008A95E9F71ABA15BA8FEF84BB10926500C4
:1006D0009093640023E3622E2BE2722E9CEC892E11
:1006E0009CE1992E80E8382E02E0402E14E8512E2D
:1006F0000A2D85B3856085BBC3010197F1F785B3EA
:100700008A7F85BBC4010197F1F7809165008D7FD9
:1007100080936500AB9885B3887F85BB29B3A89A81
:1007200099B385B3887F826085BB89B3243C19F077
:10073000243809F03FC0943C11F09438D9F5843C3A
:1007400011F08438B9F58B839A83298335BE4092A2
:100750006D0050926C006501E12CB0E2FB2E1C2D67
:10076000101B812F6DE10E94D501812F60E070E0A8
:100770000E94E501F7018081F60181936F0180E01D
:1007800091E0E80EF91E90E0E91693E2F90639F7D8
:100790008981803C11F0803851F48A81803C11F0CD
:1007A000803829F48B81803C69F0803859F085B716
:1007B0008F7385BF15BA80E060E040E051E00E9491
:1007C000F30097CF80E060E04FE051E00E94F3003B
:1007D00020E040E751E088B3876088BB8CED95E06E
:1007E000FA013197F1F70197D9F788B3887F88BB71
:1007F0008CED95E0FA013197F1F70197D9F72F5F6A
:10080000233049F70E9457010F900F900F90CF911E
:10081000DF911F910F91FF90EF90DF90CF90BF90ED
:10082000AF909F908F907F906F905F904F903F9090
:10083000089580E061E00E94D50181E061E00E94BE
:10084000D50182E061E00E94D5010895AF92BF9288
:10085000CF92DF92EF92FF920F931F93DF93CF938C
:10086000CDB7DEB72C970FB6F894DEBF0FBECDBF65
:1008700059016A010E94AF1669837A838B839C8336
:10088000C601B5010E94AF166D837E838F83988762
:10089000C801B7010E94AF1669877A878B879C874A
:1008A0008E010F5F1F4FFF24F801608171818281EB
:1008B000938121E73CEA4BE85EE30E94F514F801DE
:1008C00061937193819391938F0120E030E040E830
:1008D00057E40E94F5140E940D17AB01BC018F2D47
:1008E0000E94D902F394F3E0FF16F1F60E94190476
:1008F0002C960FB6F894DEBF0FBECDBFCF91DF911F
:100900001F910F91FF90EF90DF90CF90BF90AF902D
:100910000895FF920F931F93F82E80E06FE10E94DD
:10092000D50101E010E002C0000F111FFA94E2F7B8
:1009300080E0B8010E94E50181E06FE10E94D501ED
:1009400081E0B8010E94E50182E06FE10E94D501DB
:1009500082E0B8010E94E50180E061E00E94D501DB
:1009600081E061E00E94D50182E061E00E94D50152
:100970001F910F91FF90089582B1837E82B9E4E6C2
:10098000F0E08081877E80831BB888E98AB986E0A1
:1009900080939500109290008FE089B97894089523
:1009A0001F920F920FB60F920BB60F9211242F9336
:1009B0003F938F939F93EF93FF939CB18BB1887B71
:1009C000E9F39F3F21F481E080934C0249C080917C
:1009D0004C02813009F044C080914B02E82FF0E0D6
:1009E000E15CFD4F90838F5F80934B0280914B02BF
:1009F0008B30B0F110924B0280914B0280934C02ED
:100A000020E030E080914A02F901E15CFD4F9081E5
:100A1000980F90934A022F5F3F4F2A30310591F78C
:100A200080914A028F3F29F480914A028F5F809320
:100A30004A0290914A0280914902981779F420E085
:100A400030E0F901E15CFD4F8081F901E451FD4F97
:100A500080832F5F3F4F2A30310599F710924A0269
:100A6000FF91EF919F918F913F912F910F900BBE2E
:100A70000F900FBE0F901F901895DF93CF9300D06B
:100A8000CDB7DEB719821A829AE0899FC00111247E
:100A9000680F6A838A810E94C50080913A02882388
:100AA000E1F30E94BC00898389810F900F90CF9160
:100AB000DF9108958BE00E94C50080913A0288235F
:100AC000E1F30E94BC008823A9F381E10E94C500E4
:100AD0008FEF0E94C50080913A028823E1F30E94C3
:100AE000BC00882391F308951F920F920FB60F92C6
:100AF0000BB60F9211242F933F934F935F936F93F5
:100B00007F938F939F93AF93BF93EF93FF938FEF59
:100B10008DBD80E78CBD80915D0290915E02019653
:100B200090935E0280935D02609151027091520237
:100B3000809153029091540220914D0230914E02C7
:100B400040914F02509150020E94EF15181684F503
:100B500060914D0270914E0280914F02909150022F
:100B600020912501309126014091270150912801C3
:100B70000E94C81460934D0270934E0280934F02FE
:100B800090935002609151027091520280915302F1
:100B90009091540220914D0230914E0240914F02AB
:100BA000509150020E947F1618160CF454C043C096
:100BB00060915102709152028091530290915402BF
:100BC00020914D0230914E0240914F0250915002BF
:100BD0000E944F1688230CF03EC060914D02709128
:100BE0004E0280914F029091500220912501309148
:100BF000260140912701509128010E94971460938B
:100C00004D0270934E0280934F0290935002609178
:100C1000510270915202809153029091540220919E
:100C20004D0230914E0240914F02509150020E946D
:100C30001F16882384F08091510290915202A09156
:100C40005302B091540280934D0290934E02A093B0
:100C50004F02B09350026091590270915A028091F4
:100C60005B0290915C0220915502309156024091B6
:100C70005702509158020E94EF15181684F56091A2
:100C8000550270915602809157029091580220911E
:100C90002D0130912E0140912F01509130010E9481
:100CA000C814609355027093560280935702909334
:100CB00058026091590270915A0280915B029091A2
:100CC0005C0220915502309156024091570250919A
:100CD00058020E947F1618160CF454C043C060914D
:100CE000590270915A0280915B0290915C022091AE
:100CF00055023091560240915702509158020E947D
:100D00004F1688230CF03EC0609155027091560238
:100D1000809157029091580220912D0130912E011F
:100D200040912F01509130010E9497146093550219
:100D30007093560280935702909358026091590223
:100D400070915A0280915B0290915C022091550251
:100D50003091560240915702509158020E941F163E
:100D6000882384F08091590290915A02A0915B02ED
:100D7000B0915C028093550290935602A093570263
:100D8000B0935802FF91EF91BF91AF919F918F91D6
:100D90007F916F915F914F913F912F910F900BBE7B
:100DA0000F900FBE0F901F9018952F923F924F9269
:100DB0005F926F927F928F929F92AF92BF92CF92EB
:100DC000DF92EF92FF920F931F931B012C015901A9
:100DD0006A01CA01B90122E03BE247E05DE30E94FB
:100DE000F5143B014C01C801B70129E23CE54FE095
:100DF0005EE30E94F5147B018C01C201B10122E483
:100E000030E645E65DE30E94F514A40193010E94DB
:100E1000C814A80197010E94C81420E030E040E8FF
:100E200057E40E94F5140E940D17AB01BC0180E04D
:100E30000E94D902C601B50128EB3EE145E85DEB11
:100E40000E94F514A80197010E94C81420E030E028
:100E500040E857E40E94F5140E940D17AB01BC0155
:100E600081E00E94D902C201B10122E430E645E6E8
:100E70005DEB0E94F514A40193010E94C814A8011F
:100E800097010E94C81420E030E040E857E40E9437
:100E9000F5140E940D17AB01BC0182E00E94D9023B
:100EA0000E9419041F910F91FF90EF90DF90CF9057
:100EB000BF90AF909F908F907F906F905F904F907A
:100EC0003F902F9008952F923F924F925F926F9292
:100ED0007F928F929F92AF92BF92CF92DF92EF92CA
:100EE000FF920F931F93DF93CF93CDB7DEB7289771
:100EF0000FB6F894DEBF0FBECDBF9A8389833B0146
:100F00005C834B8349011E830D8310925E02109215
:100F10005D021701442437FC4094542C9B0124515A
:100F20003D4F38872F838CEE92E0880E991E91E01A
:100F300069167104F9F48091ED02813538F48091DD
:100F40005D0290915E02883C910588F5E090ED028B
:100F5000C201B1010E94AF165B016C01FF24EB815D
:100F6000FC81EE1AFF0A0027F7FC0095102FC8013C
:100F7000B70111C0EF81F8851081C201B1010E9453
:100F8000AF165B016C016B817C81611B7109882745
:100F900077FD8095982F0E94AF167B018C01C601CA
:100FA000B50120E030E040E050E00E94D506EF813E
:100FB000F885808129813A8121303105F1F4F401ED
:100FC000808190E02D813E81281739070CF0AFCF4A
:100FD00080915D0290915E028536910508F4A7CF5D
:100FE00060E070E080E090E09B01AC017B018C014F
:100FF0000E94D50621E030E064C0E981FA81329791
:1010000009F040C0EF81F885208190E0821B9109B2
:101010002D813E81281739070CF089CF80915D0220
:1010200090915E028536910508F481CF31E0631618
:101030007104D9F460E070E080E090E09B01AC01C5
:101040000F2EF0E0EF2EF0E0FF2EF8E40F2FF2EC81
:101050001F2FF02D0E94D50688EE93E020E731E0A7
:10106000F9013197F1F70197D9F760E070E080E07E
:1010700090E09B01AC017B018C010E94D50622E02F
:1010800030E01FC08091630021B1869586958695DA
:1010900090E0809590958370907030E02095309529
:1010A0002C713070822B932B892B09F440CF8091C7
:1010B0005D0290915E028536910508F438CF23E0F9
:1010C00030E0C90128960FB6F894DEBF0FBECDBF41
:1010D000CF91DF911F910F91FF90EF90DF90CF9014
:1010E000BF90AF909F908F907F906F905F904F9048
:1010F0003F902F900895EF92FF920F931F93AB01B3
:10110000019709F061C08091630091B18695869541
:1011100086958095837090959C71892B682F80FDB2
:1011200053C08091630021B186958695869590E0A5
:10113000809590958370907030E0209530952C715B
:101140003070822B932B089771F4BA01882777FDB2
:101150008095982F0E94AF1620E030E040E050E0EC
:1011600079018A012FC062FF16C0BA01882777FD76
:101170008095982F0E94AF1620E030E040E050E0CC
:101180000F2EF0E0EF2EF0E0FF2EF0E20F2FF1EC4B
:101190001F2FF02D17C064FF17C0BA01882777FDF5
:1011A0008095982F0E94AF1620E030E040E050E09C
:1011B0000F2EF0E0EF2EF0E0FF2EF0E20F2FF1E423
:1011C0001F2FF02D0E94D5061F910F91FF90EF90D9
:1011D00008952F923F924F925F926F927F928F92DB
:1011E0009F92AF92BF92CF92DF92EF92FF920F93B6
:1011F0001F935B016C0119012A013701480120E0AE
:1012000030E044EB53E40E941F1687FF36C0C6014E
:10121000B50120E030E040E050E00E944F1687FD2D
:1012200039C0C601B50128E939EF4EE85CE30E94F8
:10123000F5147B018C01C8010E94391A9B01AC0195
:10124000C201B1010E94F5140E940D175B016C01EF
:10125000B701C8010E94971A9B01AC01C201B101FC
:101260000E94F5140E940D177B018C01C401B3018B
:101270000E940D171B012C011AC0C601B50120E008
:1012800030E040E050E00E944F1687FD03C0C201ED
:10129000B10103C0C201B10190580E940D171B019A
:1012A0002C01AA24BB246501EE24FF248701C6017A
:1012B000B5010E94AF163B014C01C801B7010E9465
:1012C000AF165B016C01C201B1010E94AF167B0138
:1012D0008C01C401B301A60195010E94D5061F919E
:1012E0000F91FF90EF90DF90CF90BF90AF909F90C5
:1012F0008F907F906F905F904F903F902F900895C8
:101300002F923F924F925F926F927F928F929F9215
:10131000AF92BF92CF92DF92EF92FF920F931F9303
:10132000DF93CF93CDB7DEB7A2970FB6F894DEBFA9
:101330000FBECDBF1B012C013901D88ACF86BAA2BE
:10134000A9A28FEF8DBD80E78CBD81E090E09093E6
:101350005E0280935D0280E090E0A0EAB0E48093BA
:10136000250190932601A0932701B093280180E0E6
:1013700090E0A0E4B0E48093290190932A01A09327
:101380002B01B0932C01662757FD6095762FCB017A
:10139000BA010E94AF16609351027093520280937B
:1013A000530290935402882477FC8094982CC401B3
:1013B000B3010E94AF166093590270935A02809352
:1013C0005B0290935C020F2EF0E06F2EF0E07F2E18
:1013D000F0E08F2EF0E09F2EF02D6F8278868986C8
:1013E0009A861A821982AF85B889CD01A0E0B0E053
:1013F000898B9A8BAB8BBC8BA9A1BAA1CD01A0E044
:10140000B0E08D8B9E8BAF8BB88FC801A0E0B0E0B1
:10141000898F9A8FAB8FBC8FC701AA2797FDA095A4
:10142000BA2F8D8F9E8FAF8FB8A380915D02909160
:101430005E02892B09F440C110925E0210925D0297
:1014400080914D0290914E02A0914F02B0915002B6
:101450008B879C87AD87BE8760915502709156023D
:1014600080915702909158022AE037ED43E25CE305
:101470000E94F5146B837C838D839E83C201B1012E
:101480002B813C814D815E810E9497141B012C01B0
:1014900020E030E040E050E00E944F1688234CF4FA
:1014A000C201B10120E030E044EB53E40E94C814D3
:1014B00012C0C201B10120E030E044EB53E40E94CD
:1014C0001F16882354F0C201B10120E030E044EB44
:1014D00053E40E9497141B012C01A0904D02B09080
:1014E0004E02C0904F02D0905002E0905502F09012
:1014F00056020091570210915802C201B1010E9498
:101500000D17882777FD8095982F0E94AF16A601AA
:1015100095010E94E9086B857C858D859E852AE072
:1015200037ED43E25CE30E94F5149B01AC01C4017A
:10153000B3010E94C8143B014C016F8178858985F5
:101540009A852B813C814D815E810E94C8146F83F6
:10155000788789879A8769897A898B899C890E948B
:1015600061179B01AC01C401B3010E941F168823BF
:1015700084F0AF85B889AB2B61F080E090E0A8ECF7
:10158000B2E48093510290935202A0935302B0931D
:101590005402AF80B884C984DA84E894D7F86D899E
:1015A0007E898F89988D0E9461179B01AC01C601CD
:1015B000B5010E941F16882364F1A9A1BAA1AB2B23
:1015C00041F180E090E0A0EAB1E480935902909369
:1015D0005A02A0935B02B0935C0260915502709135
:1015E0005602809157029091580220E030E040E08E
:1015F00050E00E947F16181664F080E090E0A0EAA8
:10160000B1EC8093590290935A02A0935B02B0937D
:101610005C02698D7A8D8B8D9C8D0E9461177B0198
:101620008C01C401B301A80197010E941F1687FF16
:1016300009C0C401B3019058A80197010E941F1668
:101640008823B4F080E090E0A0E0B0E08093510205
:1016500090935202A0935302B093540280934D0290
:1016600090934E02A0934F02B093500291E09A8360
:101670006D8D7E8D8F8D98A10E94AF169B01AC0160
:10168000C601B5010E941F168823B4F080E090E0E7
:10169000A0E0B0E08093590290935A02A0935B02BD
:1016A000B0935C028093550290935602A093570228
:1016B000B0935802A1E0A983BA81BB2309F4B5CE47
:1016C000E981EE2309F4B1CEA2960FB6F894DEBFFD
:1016D0000FBECDBFCF91DF911F910F91FF90EF9083
:1016E000DF90CF90BF90AF909F908F907F906F9042
:1016F0005F904F903F902F9008954F925F926F921E
:101700007F928F929F92AF92BF92CF92DF92EF9291
:10171000FF920F931F93CF93DF933C010E945701D9
:101720008824992486E6482E8EE0582E7DC080912C
:10173000F2022091F40290E08055904030E0821750
:10174000930749F48091F102823D29F48091F302DC
:101750008E3B09F46DC09091F1026091F30280918B
:10176000F302873E18F0C2E3D0E004C0C62FD0E0F9
:10177000CE5BD0408091F102803F18F002E310E090
:1017800004C0092F10E0005A10408091F2028A3FF5
:1017900009F4EC968091F402863458F40F2EF0E0B0
:1017A000AF2EF0E0BF2EF0E0CF2EF0E0DF2EF02DD8
:1017B00015C08091F2022091F40290E08055904093
:1017C000821B910962E070E00E94DB19882777FD97
:1017D0008095982F0E94AF165B016C01B801882795
:1017E00077FD8095982F0E94AF167B018C016627AC
:1017F00077276C1B7D0B882777FD8095982F0E949B
:10180000AF169B01AC01C801B701860175010E94AA
:10181000D5060894811C911CC2010197F1F780E064
:1018200060E0482D0E946701861497040CF47FCF76
:1018300060E070E080E090E09B01AC017B018C01F6
:101840000E94D5060E945701DF91CF911F910F9101
:10185000FF90EF90DF90CF90BF90AF909F908F90D0
:101860007F906F905F904F9008952F923F924F928C
:101870005F926F927F928F929F92AF92BF92CF9220
:10188000DF92EF92FF920F931F93CF93DF932C0180
:10189000C0E0D0E096E6292E9EE0392E50C080911F
:1018A000EF022091ED0290E0821B9109CC9749F460
:1018B0008091F0028A3F29F48091EE028B3E09F478
:1018C00042C06091F0020091EE02F090ED021091A2
:1018D000EF0270E0605F7040882777FD8095982F59
:1018E0000E94AF163B014C01202F30E0255F3040B5
:1018F000B901882777FD8095982F0E94AF165B016C
:101900006C012F2D30E0245C3F4F211B3109B901C0
:10191000882777FD8095982F0E94AF167B018C0158
:10192000C401B301A60195010E94D5062196C1010B
:101930000197F1F780E060E04C2F0E946701C41529
:10194000D5050CF4ACCF60E070E080E090E09B0146
:10195000AC017B018C010E94D506DF91CF911F91D4
:101960000F91FF90EF90DF90CF90BF90AF909F903E
:101970008F907F906F905F904F903F902F90089541
:10198000FF920F931F93CF93DF93EC0180E090E0E1
:10199000FE01E80FF91F1082019684309105C1F70E
:1019A00011E020C08F2D602F0E943D0590E0009730
:1019B000B1F08634910514F418830EC08837910570
:1019C00014F4198309C08A3A910514F41A8304C0E7
:1019D0008C3D91050CF41B830E5F093019F71F5FD6
:1019E000143029F001E022E0F22EF10EDBCFDF917E
:1019F000CF911F910F91FF900895EF92FF920F9357
:101A00001F9310925E0210925D0260E070E080E031
:101A100090E020E030E048EC52EC7B018C010E9429
:101A2000D50680915D0290915E02019690935E02D0
:101A300080935D0281E066E60E943D05482F81E0CB
:101A400060E00E94670140915D0250915E0280E07B
:101A500060E00E94670180915D0290915E020B97A9
:101A600070F0C801B701A80197010E94D50680E077
:101A700064E04FEF0E9467012FEF3FEF30C081E03D
:101A800066E60E943D058D3791F460E070E080E0ED
:101A900090E09B01AC017B018C010E94D50680E0A7
:101AA00064E041E00E94670121E030E018C082E07C
:101AB00066E60E943D058D3709F0A7CF60E070E033
:101AC00080E090E09B01AC017B018C010E94D50677
:101AD00080E064E042E00E94670122E030E0C9015A
:101AE0001F910F91FF90EF9008952F923F924F9288
:101AF0005F926F927F928F929F92AF92BF92CF929E
:101B0000DF92EF92FF920F931F93DF93CF9300D05A
:101B100000D000D0CDB7DEB79E838D836B011A0154
:101B200097FF2EC00CC060E070E080E090E020E005
:101B300030E048E452EC7B018C010E94D506809194
:101B4000630021B186958695869590E08095909565
:101B50008370907030E0209530952C713070822B1E
:101B6000932B089701F720C060E070E080E090E0E0
:101B700020E030E048E452E47B018C010E94D5066D
:101B80008091630021B186958695869590E0809539
:101B900090958370907030E0209530952C71307066
:101BA000822B932B089701F710925E0210925D0230
:101BB0004601AA2497FCA094BA2C8D819E81909511
:101BC00081959F4F9C01442737FD4095542F2983D1
:101BD0003A834B835C834D815E812A01662457FCE6
:101BE0006094762C4091630081B146954695469568
:101BF0004095437080958C71482B80E060E00E9496
:101C000067018091630021B186958695869590E065
:101C1000809590958370907030E0209530952C7170
:101C20003070822B932B892B51F480915D0290911F
:101C30005E022816390638F420E030E0ADC010927C
:101C40005E0210925D028091630021B186958695B7
:101C5000869590E0809590958370907030E0209507
:101C600030952C713070822B932B4C9719F421E016
:101C700030E092C08091630021B18695869586956B
:101C800090E0809590958370907030E0209530952D
:101C90002C713070822B932B489719F422E030E09E
:101CA0007BC08091630021B186958695869590E0F2
:101CB000809590958370907030E0209530952C71D0
:101CC0003070822B932B0C9719F423E030E064C022
:101CD0008091630021B186958695869590E08095E8
:101CE00090958370907030E0209530952C71307015
:101CF000822B932B089749F0C501B4010E94AF16BF
:101D00007B018C01C301B2011EC08091630021B12F
:101D100086958695869590E08095909583709070D5
:101D200030E0209530952C713070822B932B0897E2
:101D3000E1F4C501B4010E94AF167B018C016981F9
:101D40007A818B819C810E94AF169B01AC01C801F6
:101D5000B7010F2EF0E0EF2EF0E0FF2EF0E00F2F96
:101D6000F0E01F2FF02D0E94D50680E060E00E9479
:101D70003D05853608F436CF80E061E00E943D05E0
:101D80008F3608F42FCF80E061E00E943D05873850
:101D900008F028CF24E030E0C90126960FB6F89469
:101DA000DEBF0FBECDBFCF91DF911F910F91FF908E
:101DB000EF90DF90CF90BF90AF909F908F907F90EB
:101DC0006F905F904F903F902F900895CF93DF9347
:101DD000EC010E9457014091EC0280E066E00E9415
:101DE00067014091ED0280E060E00E946701409150
:101DF000EE0281E060E00E9467014091EF0282E024
:101E000060E00E9467014091F00283E060E00E9480
:101E100067014091F10283E06CE00E94670140910C
:101E2000F40280E06CE00E9467014091F30281E0DF
:101E30006CE00E9467014091F20282E06CE00E9437
:101E400067014091630081B146954695469540955E
:101E5000437080958C71482B82E066E00E94670198
:101E6000C130D10529F581E066E60E943D05482F85
:101E700080E061E10E94670181E067E60E943D0524
:101E8000482F81E061E10E94670182E066E60E94DE
:101E90003D05482F82E061E10E94670182E067E62C
:101EA0000E943D05482F83E061E10E94670193CFC6
:101EB000209709F090CF80E061E143E251E00E9479
:101EC000F30081E061E143E251E00E94F30082E02F
:101ED00061E143E251E00E94F3007DCF80E70E9480
:101EE000C50020E030E009C02F5F3F4F81E0253F73
:101EF000380719F420E030E006C080913A028823C8
:101F000099F321E030E0C90108954F925F927F92EA
:101F10008F929F92AF92BF92CF92DF92EF92FF92F9
:101F20000F931F93CF93DF930E94CD000E94430332
:101F30000E9476000E94A8020E94BC041FBC85E09B
:101F40008EBD8FEF8DBD80E78CBD84E087BF789418
:101F50008824992418E7412E512CB4999FC184E11B
:101F600090E068EC70E048EC50E00E94750D6C0168
:101F7000009721F084E0C816D10491F460E070E08D
:101F800080E090E09B01AC017B018C010E94D506B2
:101F900081E067E60E943D05882309F062C069C0C0
:101FA00082E0C816D10459F560E070E080E090E06E
:101FB0004CE251E022E330E008EC10E0BAE5EB2E11
:101FC000F12CAAEFCA2ED12CF5E5AF2EB12C0E9430
:101FD000800984E190E068EC70E048EC50E00E94F9
:101FE000750D60E070E080E090E04CE251E02EEC96
:101FF0003FEF04E610E0E4E6CE2ED12C2FC083E0C4
:10200000C816D10409F0ABCF60E070E080E090E04A
:102010004CE251E02EEC3FEF04E610E0BAE5EB2E87
:10202000F12CA4E6CA2ED12CF5E5AF2EB12C0E94DE
:10203000800984E190E068EC70E048EC50E00E9498
:10204000750D60E070E080E090E04CE251E022E34A
:1020500030E008EC10E0EAEFCE2ED12C0E9480098F
:102060007ECF84E0C816D10421F411E0812E912C9A
:1020700011C082E067E60E943D05882341F084E0BC
:10208000C816D10421F4B2E08B2E912C03C0A3E03A
:102090008A2E912C8091ED02833868F460E070E024
:1020A00080E090E020E030E048E453EC7B018C01DC
:1020B0000E94D506EFCF83E090E061E070E04CE84D
:1020C00050E020E030E000E010E0F8ECEF2EF12CE2
:1020D0000E946307782C882D66E60E943D058F36A6
:1020E00030F0882D66E60E943D058C3810F0CD2832
:1020F00089F460E070E080E090E048EC50E02CE390
:1021000030E004E610E0E4EBEE2EF12CB2E3CB2E4F
:10211000D12C9EC060E070E084EB92E448EC50E08B
:102120002CE330E008EC10E0AAE5EA2EF12CF6E909
:10213000CF2ED12CE0E5AE2EB12C0E9480098091EB
:10214000ED028F3608F49DC060E070E080E090E022
:1021500048EC50E028ED3FEF08E512E0BAE5EB2E41
:10216000F12CA6E2CA2EA2E0DA2EF0E5AF2EB12CB9
:102170000E948009872D66E60E943D058F3630F06B
:10218000872D66E60E943D058C38D8F060E070E04F
:1021900080E090E040E050E026E430E000E010E035
:1021A000EAE5EE2EF12CCC24DD24B0E5AB2EB12CEB
:1021B0000E948009872D66E60E943D058F3660F1FA
:1021C00025C060E070E084E393E448EC50E020E058
:1021D00030E00AEF10E0EE24FF24A8ECCA2ED12C48
:1021E000AA24BB240E94800960E070E080E090E0B7
:1021F00048EC50E026E430E006E212E0F4EBEF2E8B
:10220000F12CE4EFCE2EE1E0DE2E22C0872D66E633
:102210000E943D058C3858F060E070E080E090E06E
:102220009B01AC017B018C010E94D50696CE60E03B
:1022300070E084E393E448EC50E026E430E000E909
:1022400011E0B4EBEB2EF12CAEE5CA2EA1E0DA2EB4
:10225000FAEAAF2EB12C0E94800984EF91E00E942F
:102260007D0BDF91CF911F910F91FF90EF90DF9049
:10227000CF90BF90AF909F908F907F905F904F9046
:10228000089560E070E088E493E420E030E040E00E
:1022900050E079018A010E94D50651CFB59905C059
:1022A00081E090E00E94E60E58CEB69956CE80911D
:1022B000ED02893C00F160E070E080E090E09B017D
:1022C000AC017B018C010E94D50660E070E084E3E4
:1022D00093E448EC50E020E030E004E610E0EE2427
:1022E000FF24E2E3CE2ED12CAA24BB240E94800935
:1022F000C0E0D0E037C08091F402B201681B7109E0
:10230000882777FD8095982F0E94AF167B018C015E
:1023100060E070E088E493E420E030E040E050E0EA
:102320000E94D50681149104B9F48091ED02873999
:1023300098F081E067E60E943D05882321F001E0E6
:10234000802E912C09C082E067E60E943D0588231B
:1023500019F012E0812E912C80E060E0482D0E945F
:102360006701A5CF80E061E00E943D058D37A1F0B7
:1023700060E070E080E090E09B01AC010F2EF0E0A7
:10238000EF2EF0E0FF2EF0E20F2FF1E41F2FF02DE3
:102390000E94D5062196E6CF60E070E080E090E0F4
:1023A00048EC50E020E030E004E610E0EE24FF24AA
:1023B000B2E3CB2ED12CAA24BB240E948009209703
:1023C000A1F060E070E080E090E09B01AC010F2E96
:1023D000F0E0EF2EF0E0FF2EF0E20F2FF1EC1F2FD8
:1023E000F02D0E94D5062197EACF60E070E084E3EB
:1023F00093E448EC50E020E030E000E911E0EE2406
:10240000FF24A2ECCA2EA1E0DA2EAA24BB240E944B
:10241000800960E070E080E090E040E050E02AEB6E
:102420003FEF00E010E0FCE5EF2EF12CCC24DD24A2
:10243000E5E5AE2EB12C0E94800960E070E080E0FE
:1024400090E09B01AC017B018C010E94D506D82C49
:10245000882D66E60E943D058D3768F419C060E05E
:1024600070E080E090E020E030E048E453E47B015D
:102470008C010E94D5068D2D66E60E943D058838A8
:1024800070F38D2D66E60E943D05803A40F72CC022
:10249000882D66E60E943D058D3768F025C060E016
:1024A00070E080E090E020E030E048E453EC7B0115
:1024B0008C010E94D5068D2D66E60E943D05883868
:1024C00070F38D2D66E60E943D05803A40F70CC002
:1024D00060E070E088E493E420E030E040E050E029
:1024E00079018A010E94D5068091630021B1869509
:1024F0008695869590E0809590958370907030E0F9
:10250000209530952C713070822B932B892B01F301
:1025100010925E0210925D020CC060E070E086E1F5
:1025200093E420E030E040E050E079018A010E942D
:10253000D50680915D0290915E028436910568F324
:1025400060E070E080E090E09B01AC017B018C01D9
:102550000E94D50684E190E068EC70E044E650E02B
:102560000E94750D6C01009721F084E0C816D1041B
:1025700091F460E070E080E090E09B01AC017B01B1
:102580008C010E94D50681E067E60E943D05882304
:1025900009F062C069C082E0C816D10459F560E054
:1025A00070E080E090E04CE251E022E330E00CE2A9
:1025B00011E0BAE5EB2EF12CAAEFCA2ED12CF5E5ED
:1025C000AF2EB12C0E94800984E190E068EC70E0AD
:1025D00048EC50E00E94750D60E070E080E090E013
:1025E0004CE251E02EEC3FEF04E610E0E4E6CE2EA4
:1025F000D12C2FC083E0C816D10409F0ABCF60E026
:1026000070E080E090E04CE251E02EEC3FEF04E619
:1026100010E0BAE5EB2EF12CA4E6CA2ED12CF5E59C
:10262000AF2EB12C0E94800984E190E068EC70E04C
:1026300048EC50E00E94750D60E070E080E090E0B2
:102640004CE251E022E330E00CE211E0EAEFCE2E62
:10265000D12C0E9480097ECF84E0C816D10421F4D9
:1026600051E0852E912C11C082E067E60E943D0565
:10267000882341F084E0C816D10421F442E0842E7E
:10268000912C03C033E0832E912C80E060E0482D34
:102690000E94670162CCA0E0B0E0E1E5F3E10C94B8
:1026A000021ADC012B01FA019C91923008F439C125
:1026B000EB018881823008F433C1943069F48430AE
:1026C00009F02FC111969C9111978981981709F4EF
:1026D00028C1A1E3B1E025C1843009F421C18230D1
:1026E000A9F4923009F01DC19A01AD0188E0EA0118
:1026F0000990AE01E90109929E018150C1F7E20102
:10270000898111969C918923818308C1923009F4B3
:1027100007C112962D903C901397EB018A819B8103
:102720001496AD90BD90CD90DC901797EC80FD8015
:102730000E811F819101281B390BB90137FF04C09D
:1027400066277727621B730B603271050CF061C03E
:10275000121613066CF537014801062E04C0969434
:102760008794779467940A94D2F721E030E040E0B0
:1027700050E004C0220F331F441F551F6A95D2F743
:1027800021503040404050402E213F2140235123D2
:10279000211531054105510521F021E030E040E0EF
:1027A00050E079018A01E628F728082919293CC058
:1027B000232BD1F1260E371E35014601062E04C00B
:1027C00096948794779467940A94D2F721E030E046
:1027D00040E050E004C0220F331F441F551F6A958C
:1027E000D2F721503040404050402A213B214C211B
:1027F0005D21211531054105510521F021E030E031
:1028000040E050E059016A01A628B728C828D92815
:102810000BC0821593052CF01C01AA24BB24650172
:1028200003C0EE24FF24870111969C91D2011196DA
:102830008C91981709F445C0992339F0A8019701A4
:102840002A193B094C095D0906C0A60195012E19FC
:102850003F09400B510B57FD08C011823382228281
:1028600024833583468357831DC081E0818333826F
:10287000228288279927DC01821B930BA40BB50BBE
:1028800084839583A683B7830DC0220F331F441F13
:10289000551F248335834683578382819381019713
:1028A000938382832481358146815781DA01C9016E
:1028B0000197A109B1098F5F9F4FAF4FBF4328F325
:1028C0000BC0918333822282EA0CFB1C0C1D1D1D60
:1028D000E482F5820683178383E080832481358137
:1028E0004681578157FF1AC0C901AA2797FDA095B5
:1028F000BA2F81709070A070B0705695479537953B
:102900002795822B932BA42BB52B84839583A683A9
:10291000B78382819381019693838283DF0101C013
:10292000D201CD01CDB7DEB7E2E10C941E1AA0E2D0
:10293000B0E0EDE9F4E10C940E1A69837A838B839D
:102940009C832D833E834F835887E9E0EE2EF12C44
:10295000EC0EFD1ECE010196B7010E94FE188E01FD
:102960000F5E1F4FCE010596B8010E94FE188A899E
:1029700091E089278A8BC701B801AE01475E5F4F9E
:102980000E944B130E942918A096E6E00C942A1A84
:10299000A0E2B0E0EEECF4E10C940E1A69837A83C5
:1029A0008B839C832D833E834F835887F9E0EF2EE2
:1029B000F12CEC0EFD1ECE010196B7010E94FE180F
:1029C0008E010F5E1F4FCE010596B8010E94FE18C2
:1029D000C701B801AE01475E5F4F0E944B130E94D2
:1029E0002918A096E6E00C942A1AA0E2B0E0EBEFDA
:1029F000F4E10C94021A69837A838B839C832D8380
:102A00003E834F835887CE010196BE01675F7F4F9B
:102A10000E94FE18CE010596BE016F5E7F4F0E9498
:102A2000FE189985923088F089898230C8F09430F8
:102A300019F4823051F404C0843029F4923081F4C6
:102A400081E391E0C6C0923049F420E09A858A89FA
:102A5000981321E02A87CE010996BBC0823049F441
:102A600020E09A858A89981321E02A8BCE0141962D
:102A7000B0C02D843E844F8458886D887E888F88AE
:102A8000988CEE24FF248701AA24BB24650140E032
:102A900050E060E070E0E0E0F0E0C1018170907033
:102AA000892BE9F0E60CF71C081D191D9A01AB01F2
:102AB0002A0D3B1D4C1D5D1D80E090E0A0E0B0E0C4
:102AC000E614F7040805190520F481E090E0A0E081
:102AD000B0E0BA01A901480F591F6A1F7B1FAA0C59
:102AE000BB1CCC1CDD1C97FE08C081E090E0A0E080
:102AF000B0E0A82AB92ACA2ADB2A3196E032F105C9
:102B000049F0660C771C881C991C5694479437949E
:102B10002794C3CFFA85EA892B893C898B859C85CC
:102B2000280F391F2E5F3F4F17C0CA018170907068
:102B3000892B61F016950795F794E79480E090E073
:102B4000A0E0B0E8E82AF92A0A2B1B2B76956795B6
:102B5000579547952F5F3F4F77FDE7CF0CC0440F48
:102B6000551F661F771F17FD4160EE0CFF1C001FED
:102B7000111F21503040403090E0590790E0690724
:102B800090E4790760F32B8F3C8FDB01CA018F77CC
:102B90009070A070B07080349105A105B10561F40A
:102BA00047FD0AC0E114F1040105110529F0405C5C
:102BB0005F4F6F4F7F4F40781A8EFE1711F081E004
:102BC0008A8F4D8F5E8F6F8F78A383E0898FCE01C0
:102BD00049960E942918A096E2E10C941E1AA8E1D9
:102BE000B0E0E5EFF5E10C940E1A69837A838B83EC
:102BF0009C832D833E834F83588789E0E82EF12CF8
:102C0000EC0EFD1ECE010196B7010E94FE188E014A
:102C10000F5E1F4FCE010596B8010E94FE188985F0
:102C2000823040F08989823028F0C701B8010E94C3
:102C3000761901C08FEF6896E6E00C942A1AA8E195
:102C4000B0E0E5E2F6E10C940E1A69837A838B8397
:102C50009C832D833E834F83588789E0E82EF12C97
:102C6000EC0EFD1ECE010196B7010E94FE188E01EA
:102C70000F5E1F4FCE010596B8010E94FE18898590
:102C8000823040F08989823028F0C701B8010E9463
:102C9000761901C08FEF6896E6E00C942A1AA8E135
:102CA000B0E0E5E5F6E10C940E1A69837A838B8334
:102CB0009C832D833E834F83588789E0E82EF12C37
:102CC000EC0EFD1ECE010196B7010E94FE188E018A
:102CD0000F5E1F4FCE010596B8010E94FE18898530
:102CE000823040F08989823028F0C701B8010E9403
:102CF000761901C081E06896E6E00C942A1AA8E1F2
:102D0000B0E0E5E8F6E10C940E1A69837A838B83D0
:102D10009C832D833E834F83588789E0E82EF12CD6
:102D2000EC0EFD1ECE010196B7010E94FE188E0129
:102D30000F5E1F4FCE010596B8010E94FE188985CF
:102D4000823040F08989823028F0C701B8010E94A2
:102D5000761901C081E06896E6E00C942A1AA8E092
:102D6000B0E0E5EBF6E10C940B1A9B01AC0183E0BB
:102D70008983DA01C9018827B7FD83959927AA2796
:102D8000BB27B82E211531054105510519F482E004
:102D900089833AC08823A9F0203080E0380780E09A
:102DA000480780E8580729F460E070E080E09FEC75
:102DB00030C0EE24FF248701E21AF30A040B150B3E
:102DC00002C079018A018EE1C82ED12CDC82CB822F
:102DD000ED82FE820F831887C801B7010E94DA17BF
:102DE00001971816190684F4082E04C0EE0CFF1C77
:102DF000001F111F0A94D2F7ED82FE820F831887FD
:102E0000C81AD90ADC82CB82BA82CE0101960E940E
:102E100029182896E9E00C94271AACE0B0E0E3E129
:102E2000F7E10C94121A69837A838B839C83CE0119
:102E30000196BE016B5F7F4F0E94FE188D8182302C
:102E400061F1823050F1843021F48E81882351F178
:102E50002EC02F81388537FD20C06E812F3131057E
:102E60001CF06623F9F023C08EE190E0821B930BE7
:102E700029853A854B855C8504C0569547953795DD
:102E800027958A95D2F76623B1F0509540953095F5
:102E900021953F4F4F4F5F4F0EC020E030E040E0A4
:102EA00050E009C02FEF3FEF4FEF5FE704C020E095
:102EB00030E040E050E8B901CA012C96E2E00C9401
:102EC0002E1AA8E0B0E0E7E6F7E10C940A1A7B01BD
:102ED0008C01611571058105910519F482E08983E2
:102EE00060C083E089838EE1C82ED12CDC82CB8246
:102EF000ED82FE820F831887C801B7010E94DA179E
:102F0000FC013197F7FF3BC0222733272E1B3F0BD5
:102F100057016801022E04C0D694C794B794A794B1
:102F20000A94D2F740E050E060E070E081E090E089
:102F3000A0E0B0E004C0880F991FAA1FBB1F2A950C
:102F4000D2F70197A109B1098E219F21A023B123B6
:102F50000097A105B10521F041E050E060E070E08C
:102F60004A295B296C297D294D835E836F8378878D
:102F70008EE190E08E1B9F0B9C838B8312C0309759
:102F800081F00E2E04C0EE0CFF1C001F111F0A94CE
:102F9000D2F7ED82FE820F831887CE1ADF0ADC8219
:102FA000CB821A82CE0101960E9429182896EAE067
:102FB0000C94261AEF92FF920F931F937B018C01C2
:102FC00080E0E81680E0F80681E0080780E0180756
:102FD00088F48FEFE816F1040105110531F028F0AF
:102FE00088E090E0A0E0B0E017C080E090E0A0E0D2
:102FF000B0E012C080E0E81680E0F80680E0080744
:1030000081E0180728F088E190E0A0E0B0E004C07B
:1030100080E190E0A0E0B0E020E230E040E050E06D
:10302000281B390B4A0B5B0B04C016950795F794C8
:10303000E7948A95D2F7F701E75CFE4F8081281B61
:10304000310941095109C9011F910F91FF90EF907A
:103050000895DF92EF92FF920F931F93FC01E4809B
:10306000F58006811781D1808081823048F480E02C
:1030700090E0A0E1B0E0E82AF92A0A2B1B2BA5C0BA
:10308000843009F49FC0823021F4EE24FF248701AC
:1030900005C0E114F1040105110519F4E0E0F0E0C8
:1030A00096C0628173819FEF623879070CF05BC034
:1030B00022E83FEF261B370B2A3131052CF020E0A8
:1030C00030E040E050E02AC0B801A701022E04C061
:1030D00076956795579547950A94D2F781E090E0E9
:1030E000A0E0B0E004C0880F991FAA1FBB1F2A955B
:1030F000D2F70197A109B1098E219F21A023B12305
:103100000097A105B10521F081E090E0A0E0B0E0DA
:103110009A01AB01282B392B4A2B5B2BDA01C90111
:103120008F779070A070B07080349105A105B105C3
:1031300039F427FF09C0205C3F4F4F4F5F4F04C059
:10314000215C3F4F4F4F5F4FE0E0F0E02030A0E0C8
:103150003A07A0E04A07A0E45A0710F0E1E0F0E0E7
:1031600079018A0127C06038710564F5FB01E158D7
:10317000FF4FD801C7018F779070A070B070803476
:103180009105A105B10539F4E7FE0DC080E490E09A
:10319000A0E0B0E004C08FE390E0A0E0B0E0E80E73
:1031A000F91E0A1F1B1F17FF05C016950795F794F8
:1031B000E794319687E016950795F794E7948A95FA
:1031C000D1F705C0EE24FF248701EFEFF0E06E2F6A
:1031D000679566276795902F9F77D794DD24D794BE
:1031E0008E2F8695492F462B582F5D29B701CA018E
:1031F0001F910F91FF90EF90DF900895FC01DB018C
:10320000408151812281622F6F7770E0221F222737
:10321000221F9381892F880F822B282F30E0991F3E
:103220009927991F11969C93119721153105A9F59E
:10323000411551056105710511F482E037C082E83E
:103240009FEF13969C938E9312979A01AB0167E0C0
:10325000220F331F441F551F6A95D1F783E08C93CB
:103260000DC0220F331F441F551F12968D919C9144
:103270001397019713969C938E931297203080E0BA
:10328000380780E0480780E4580758F314962D93D8
:103290003D934D935C93179708952F3F310579F433
:1032A000411551056105710519F484E08C93089569
:1032B00064FF03C081E08C9312C01C9210C02F5792
:1032C000304013963C932E93129783E08C9387E0C3
:1032D000440F551F661F771F8A95D1F770641496A7
:1032E0004D935D936D937C93179708951F93DC0125
:1032F000FB019C91923008F447C08081823008F431
:1033000043C0943051F411961C91843099F5818119
:10331000682F70E0611B71093FC0843021F092304A
:1033200031F48230B9F18181882389F12DC0119661
:103330001C9111978230F1F081811817D9F41296FF
:103340002D913C911397828193818217930794F07A
:1033500028173907BCF014968D919D910D90BC9162
:10336000A02D2481358146815781281739074A07C6
:103370005B0718F4112341F00AC082179307A407D2
:10338000B50740F4112319F061E070E005C06FEF5C
:103390007FEF02C060E070E0CB011F910895991BA0
:1033A00079E004C0991F961708F0961B881F7A953C
:1033B000C9F78095089597FB092E07260AD077FD57
:1033C00004D00CD006D000201AF4709561957F4F80
:1033D0000895F6F7909581959F4F0895AA1BBB1B02
:1033E00051E107C0AA1FBB1FA617B70710F0A61B05
:1033F000B70B881F991F5A95A9F780959095BC0126
:10340000CD0108952F923F924F925F926F927F92DB
:103410008F929F92AF92BF92CF92DF92EF92FF92E4
:103420000F931F93CF93DF93CDB7DEB7CA1BDB0B90
:103430000FB6F894DEBF0FBECDBF09942A88398835
:1034400048885F846E847D848C849B84AA84B9843C
:10345000C884DF80EE80FD800C811B81AA81B98148
:10346000CE0FD11D0FB6F894DEBF0FBECDBFED015C
:10347000089503D0E39528C0D4C03FD0E8F3E89482
:10348000E0E0BB279F57F0F02AED3FE049EC06C093
:10349000EE0FBB0F661F771F881F28F0B23A620736
:1034A0007307840728F0B25A620B730B840BE39501
:1034B0009A9572F7803830F49A95BB0F661F771F84
:1034C000881FD2F79048A1C0EF93E0FF06C0A2EAA0
:1034D0002AED3FE049EC5FEB3DD0C5D00F9003945F
:1034E00001FC9058ECE8F0E09FC057FD9058440F65
:1034F000551F59F05F3F71F04795880F97FB991F53
:1035000061F09F3F79F0879508951216130614060F
:10351000551FF2CF4695F1DF08C01616170618069C
:10352000991FF1CF869571056105089408959F93C1
:10353000A4DF0F9007FCEE5FC7CF87D030F08CD0B0
:1035400020F031F49F3F11F41EF46BC00EF4E095AF
:10355000E7FB53C0E92FC9DF80F3BA17620773078F
:103560008407950718F071F49EF58EC00EF4E0956F
:103570000B2EBA2FA02D0B01B90190010C01CA012D
:10358000A0011124FF27591B99F0593F50F4503ED8
:1035900068F11A16F040A22F232F342F4427585FCA
:1035A000F3CF469537952795A795F0405395C9F7E2
:1035B0007EF41F16BA0B620B730B840BBAF091509A
:1035C000A1F0FF0FBB1F661F771F881FC2F70EC039
:1035D000BA0F621F731F841F48F48795779567950C
:1035E000B795F7959E3F08F0B3CF9395880F08F0F5
:1035F0009927EE0F97958795089597F99F6780E82B
:1036000070E060E008959F3F31F0915020F487957D
:1036100077956795B795880F911D9695879597F93A
:1036200008959FEF80EC08959F938F937F936F93FE
:10363000FF93EF939B01AC01D8D9EF91FF912BD071
:103640002F913F914F915F91D0C900240A94161693
:10365000170618060906089500240A941216130680
:10366000140605060895092E0394000C11F488230E
:1036700052F0BB0F40F4BF2B11F460FF04C06F5F2A
:103680007F4F8F4F9F4F0895E894BB27662777277A
:10369000CB0197F90895DF93CF931F930F93FF9278
:1036A000EF92DF927B018C01689405C0DA2EEF0166
:1036B00021D0FE01E894A591259135914591559130
:1036C000AEF3EF0147DFFE019701A801DA9479F725
:1036D000DF90EF90FF900F911F91CF91DF910895B0
:1036E000B4DF28F0B9DF18F0952309F086CF99CF21
:1036F0001124CBCFFADEA0F3959FD1F3950F50E0C4
:10370000551F629FF001729FBB27F00DB11D639F93
:10371000AA27F00DB11DAA1F649F6627B00DA11D39
:10372000661F829F2227B00DA11D621F739FB00DDF
:10373000A11D621F839FA00D611D221F749F33274F
:10374000A00D611D231F849F600D211D822F762FE8
:103750006A2F11249F5750408AF0E1F088234AF0E5
:10376000EE0FFF1FBB1F661F771F881F9150504031
:10377000A9F79E3F510570F040CF87CF5F3FECF334
:10378000983EDCF3869577956795B795F795E7951D
:103790009F5FC1F7FE2B880F911D9695879597F92E
:0637A0000895F894FFCF2C
:1037A6004572726F722E205265737461727400498D
:1037B6006E697469616C697A652073756363657394
:1037C600732E0058000000A040000080400000005A
:1037D6004000000000000000000001020203030395
:1037E600030404040404040404050505050505058D
:1037F600050505050505050505060606060606066C
:103806000606060606060606060606060606060652
:10381600060606060606060606070707070707073B
:103826000707070707070707070707070707070722
:103836000707070707070707070707070707070712
:103846000707070707070707070707070707070702
:1038560007070707070707070708080808080808EB
:1038660008080808080808080808080808080808D2
:1038760008080808080808080808080808080808C2
:1038860008080808080808080808080808080808B2
:1038960008080808080808080808080808080808A2
:1038A6000808080808080808080808080808080892
:1038B6000808080808080808080808080808080882
:1038C6000808080808080808080808080808080872
:0A38D60008080808080808080800A0
:00000001FF
